{
  "_format": "hh-sol-artifact-1",
  "contractName": "TouristRegister",
  "sourceName": "contracts/Register.sol",
  "abi": [
    {
      "inputs": [],
      "stateMutability": "nonpayable",
      "type": "constructor"
    },
    {
      "anonymous": false,
      "inputs": [
        {
          "indexed": false,
          "internalType": "address",
          "name": "wallet",
          "type": "address"
        },
        {
          "indexed": false,
          "internalType": "uint256",
          "name": "Id",
          "type": "uint256"
        },
        {
          "indexed": false,
          "internalType": "string",
          "name": "name",
          "type": "string"
        },
        {
          "indexed": false,
          "internalType": "string",
          "name": "country",
          "type": "string"
        },
        {
          "indexed": false,
          "internalType": "string",
          "name": "city",
          "type": "string"
        }
      ],
      "name": "Registered",
      "type": "event"
    },
    {
      "inputs": [
        {
          "internalType": "address",
          "name": "wallet",
          "type": "address"
        }
      ],
      "name": "getDetails",
      "outputs": [
        {
          "internalType": "uint256",
          "name": "",
          "type": "uint256"
        },
        {
          "internalType": "string",
          "name": "",
          "type": "string"
        },
        {
          "internalType": "string",
          "name": "",
          "type": "string"
        },
        {
          "internalType": "string",
          "name": "",
          "type": "string"
        }
      ],
      "stateMutability": "view",
      "type": "function"
    },
    {
      "inputs": [],
      "name": "getTransactionCount",
      "outputs": [
        {
          "internalType": "uint256",
          "name": "",
          "type": "uint256"
        }
      ],
      "stateMutability": "view",
      "type": "function"
    },
    {
      "inputs": [
        {
          "internalType": "address",
          "name": "wallet",
          "type": "address"
        },
        {
          "internalType": "uint256",
          "name": "Id",
          "type": "uint256"
        },
        {
          "internalType": "string",
          "name": "name",
          "type": "string"
        },
        {
          "internalType": "string",
          "name": "country",
          "type": "string"
        },
        {
          "internalType": "string",
          "name": "city",
          "type": "string"
        }
      ],
      "name": "register",
      "outputs": [],
      "stateMutability": "nonpayable",
      "type": "function"
    }
  ],
  "bytecode": "0x608060405234801561001057600080fd5b50600080546001600160a01b031916331790556108c8806100326000396000f3fe608060405234801561001057600080fd5b50600436106100415760003560e01c80632e7700f01461004657806330289c611461005c578063bcedd7b51461007f575b600080fd5b6001546040519081526020015b60405180910390f35b61006f61006a3660046105d9565b610094565b6040516100539493929190610648565b61009261008d366004610735565b61027c565b005b6001600160a01b038116600090815260026020819052604082206001810154918101805460609384938493919260038201916004019083906100d5906107d8565b80601f0160208091040260200160405190810160405280929190818152602001828054610101906107d8565b801561014e5780601f106101235761010080835404028352916020019161014e565b820191906000526020600020905b81548152906001019060200180831161013157829003601f168201915b50505050509250818054610161906107d8565b80601f016020809104026020016040519081016040528092919081815260200182805461018d906107d8565b80156101da5780601f106101af576101008083540402835291602001916101da565b820191906000526020600020905b8154815290600101906020018083116101bd57829003601f168201915b505050505091508080546101ed906107d8565b80601f0160208091040260200160405190810160405280929190818152602001828054610219906107d8565b80156102665780601f1061023b57610100808354040283529160200191610266565b820191906000526020600020905b81548152906001019060200180831161024957829003601f168201915b5050505050905093509350935093509193509193565b600180600082825461028e9190610813565b90915550506040805160e08101825233815260208082018781529282018681526060830186905260808301859052600060a08401819052600160c0850181905260038054918201815590915283517fc2575a0e9e593c00f959f8c92f12db2869c3395a3b0502d05e2516446f71f85b600690920291820180546001600160a01b0319166001600160a01b0390921691909117815594517fc2575a0e9e593c00f959f8c92f12db2869c3395a3b0502d05e2516446f71f85c82015590518051939493610382937fc2575a0e9e593c00f959f8c92f12db2869c3395a3b0502d05e2516446f71f85d909301929190910190610524565b506060820151805161039e916003840191602090910190610524565b50608082015180516103ba916004840191602090910190610524565b5060a0828101516005909201805460c09485015115156101000261ff00199415159490941661ffff1990911617929092179091556040805160e08101825233815260208082018981528284018981526060840189905260808401889052600095840186905260019684018790526001600160a01b038c811687526002808552959096208451815497166001600160a01b031990971696909617865590519585019590955593518051919461047393850192910190610524565b506060820151805161048f916003840191602090910190610524565b50608082015180516104ab916004840191602090910190610524565b5060a08201516005909101805460c09093015115156101000261ff00199215159290921661ffff19909316929092171790556040517fb70f9135d027360fd1796fc72d840ad759aa1ee1996573db6251f06ab764688c906105159033908790879087908790610839565b60405180910390a15050505050565b828054610530906107d8565b90600052602060002090601f0160209004810192826105525760008555610598565b82601f1061056b57805160ff1916838001178555610598565b82800160010185558215610598579182015b8281111561059857825182559160200191906001019061057d565b506105a49291506105a8565b5090565b5b808211156105a457600081556001016105a9565b80356001600160a01b03811681146105d457600080fd5b919050565b6000602082840312156105eb57600080fd5b6105f4826105bd565b9392505050565b6000815180845260005b8181101561062157602081850181015186830182015201610605565b81811115610633576000602083870101525b50601f01601f19169290920160200192915050565b84815260806020820152600061066160808301866105fb565b828103604084015261067381866105fb565b9050828103606084015261068781856105fb565b979650505050505050565b634e487b7160e01b600052604160045260246000fd5b600082601f8301126106b957600080fd5b813567ffffffffffffffff808211156106d4576106d4610692565b604051601f8301601f19908116603f011681019082821181831017156106fc576106fc610692565b8160405283815286602085880101111561071557600080fd5b836020870160208301376000602085830101528094505050505092915050565b600080600080600060a0868803121561074d57600080fd5b610756866105bd565b945060208601359350604086013567ffffffffffffffff8082111561077a57600080fd5b61078689838a016106a8565b9450606088013591508082111561079c57600080fd5b6107a889838a016106a8565b935060808801359150808211156107be57600080fd5b506107cb888289016106a8565b9150509295509295909350565b600181811c908216806107ec57607f821691505b6020821081141561080d57634e487b7160e01b600052602260045260246000fd5b50919050565b6000821982111561083457634e487b7160e01b600052601160045260246000fd5b500190565b60018060a01b038616815284602082015260a06040820152600061086060a08301866105fb565b828103606084015261087281866105fb565b9050828103608084015261088681856105fb565b9897505050505050505056fea2646970667358221220ea5100e0f723e37ab7c910127f3c465f7d0ab018cf8c29709aedeb490ace972864736f6c63430008090033",
  "linkReferences": {},
  "deployedLinkReferences": {}
}