{
  "_format": "hh-sol-artifact-1",
  "contractName": "Transfer",
  "sourceName": "contracts/Transfer.sol",
  "abi": [
    {
      "inputs": [
        {
          "internalType": "address",
          "name": "registerAddress",
          "type": "address"
        }
      ],
      "stateMutability": "nonpayable",
      "type": "constructor"
    },
    {
      "anonymous": false,
      "inputs": [
        {
          "indexed": false,
          "internalType": "address",
          "name": "from",
          "type": "address"
        },
        {
          "indexed": false,
          "internalType": "address",
          "name": "receiver",
          "type": "address"
        },
        {
          "indexed": false,
          "internalType": "uint256",
          "name": "amount",
          "type": "uint256"
        },
        {
          "indexed": false,
          "internalType": "string",
          "name": "message",
          "type": "string"
        },
        {
          "indexed": false,
          "internalType": "uint256",
          "name": "timestamp",
          "type": "uint256"
        },
        {
          "indexed": false,
          "internalType": "string",
          "name": "keyword",
          "type": "string"
        }
      ],
      "name": "Transfered",
      "type": "event"
    },
    {
      "inputs": [
        {
          "internalType": "address payable",
          "name": "receiver",
          "type": "address"
        },
        {
          "internalType": "uint256",
          "name": "amount",
          "type": "uint256"
        },
        {
          "internalType": "string",
          "name": "message",
          "type": "string"
        },
        {
          "internalType": "string",
          "name": "keyword",
          "type": "string"
        }
      ],
      "name": "addToBlockchain",
      "outputs": [],
      "stateMutability": "nonpayable",
      "type": "function"
    },
    {
      "inputs": [],
      "name": "getAllTransactions",
      "outputs": [
        {
          "components": [
            {
              "internalType": "address",
              "name": "sender",
              "type": "address"
            },
            {
              "internalType": "address",
              "name": "receiver",
              "type": "address"
            },
            {
              "internalType": "uint256",
              "name": "amount",
              "type": "uint256"
            },
            {
              "internalType": "string",
              "name": "message",
              "type": "string"
            },
            {
              "internalType": "uint256",
              "name": "timestamp",
              "type": "uint256"
            },
            {
              "internalType": "string",
              "name": "keyword",
              "type": "string"
            }
          ],
          "internalType": "struct Transfer.TransferStruct[]",
          "name": "",
          "type": "tuple[]"
        }
      ],
      "stateMutability": "view",
      "type": "function"
    },
    {
      "inputs": [],
      "name": "getTransactionCount",
      "outputs": [
        {
          "internalType": "uint256",
          "name": "",
          "type": "uint256"
        }
      ],
      "stateMutability": "view",
      "type": "function"
    }
  ],
  "bytecode": "0x608060405234801561001057600080fd5b5060405161083e38038061083e83398101604081905261002f91610054565b600180546001600160a01b0319166001600160a01b0392909216919091179055610084565b60006020828403121561006657600080fd5b81516001600160a01b038116811461007d57600080fd5b9392505050565b6107ab806100936000396000f3fe608060405234801561001057600080fd5b50600436106100415760003560e01c806327506f53146100465780632e7700f014610064578063cc2d7ead14610075575b600080fd5b61004e61008a565b60405161005b91906104cc565b60405180910390f35b60005460405190815260200161005b565b610088610083366004610630565b610245565b005b60606002805480602002602001604051908101604052809291908181526020016000905b8282101561023c5760008481526020908190206040805160c0810182526006860290920180546001600160a01b0390811684526001820154169383019390935260028301549082015260038201805491929160608401919061010f906106bc565b80601f016020809104026020016040519081016040528092919081815260200182805461013b906106bc565b80156101885780601f1061015d57610100808354040283529160200191610188565b820191906000526020600020905b81548152906001019060200180831161016b57829003601f168201915b50505050508152602001600482015481526020016005820180546101ab906106bc565b80601f01602080910402602001604051908101604052809291908181526020018280546101d7906106bc565b80156102245780601f106101f957610100808354040283529160200191610224565b820191906000526020600020905b81548152906001019060200180831161020757829003601f168201915b505050505081525050815260200190600101906100ae565b50505050905090565b600160008082825461025791906106f7565b90915550506040805160c0810182523381526001600160a01b0386811660208084019182529383018781526060840187815242608086015260a0850187905260028054600181018255600091909152855160069091027f405787fa12a823e0f2b7631cc41b3ba8828b3321ca811111fa75cd3aa3bb5ace810180549287166001600160a01b031993841617815594517f405787fa12a823e0f2b7631cc41b3ba8828b3321ca811111fa75cd3aa3bb5acf820180549190971692169190911790945590517f405787fa12a823e0f2b7631cc41b3ba8828b3321ca811111fa75cd3aa3bb5ad084015551805193949193610376937f405787fa12a823e0f2b7631cc41b3ba8828b3321ca811111fa75cd3aa3bb5ad1019291909101906103e6565b506080820151600482015560a0820151805161039c9160058401916020909101906103e6565b5050507f5715ac605b1911877f7335f9224e196de1d9bc15951b3d0836886e1e9398bbbb3385858542866040516103d89695949392919061071d565b60405180910390a150505050565b8280546103f2906106bc565b90600052602060002090601f016020900481019282610414576000855561045a565b82601f1061042d57805160ff191683800117855561045a565b8280016001018555821561045a579182015b8281111561045a57825182559160200191906001019061043f565b5061046692915061046a565b5090565b5b80821115610466576000815560010161046b565b6000815180845260005b818110156104a557602081850181015186830182015201610489565b818111156104b7576000602083870101525b50601f01601f19169290920160200192915050565b60006020808301818452808551808352604092508286019150828160051b87010184880160005b8381101561057f57888303603f19018552815180516001600160a01b039081168552888201511688850152868101518785015260608082015160c082870181905291906105428388018261047f565b92505050608080830151818701525060a0808301519250858203818701525061056b818361047f565b9689019694505050908601906001016104f3565b509098975050505050505050565b634e487b7160e01b600052604160045260246000fd5b600082601f8301126105b457600080fd5b813567ffffffffffffffff808211156105cf576105cf61058d565b604051601f8301601f19908116603f011681019082821181831017156105f7576105f761058d565b8160405283815286602085880101111561061057600080fd5b836020870160208301376000602085830101528094505050505092915050565b6000806000806080858703121561064657600080fd5b84356001600160a01b038116811461065d57600080fd5b935060208501359250604085013567ffffffffffffffff8082111561068157600080fd5b61068d888389016105a3565b935060608701359150808211156106a357600080fd5b506106b0878288016105a3565b91505092959194509250565b600181811c908216806106d057607f821691505b602082108114156106f157634e487b7160e01b600052602260045260246000fd5b50919050565b6000821982111561071857634e487b7160e01b600052601160045260246000fd5b500190565b6001600160a01b038781168252861660208201526040810185905260c0606082018190526000906107509083018661047f565b84608084015282810360a0840152610768818561047f565b999850505050505050505056fea26469706673582212200fa811bea30d7caea9127801776f52432c3a511afb0fc3b119f3a5d4c6bf559c64736f6c63430008090033",
  "linkReferences": {},
  "deployedLinkReferences": {}
}